S00D000070726131312E7372656372
S113000071C000008EC000008CC000008AC00000D7
S113001088C0000086C0000084C0000082C00000C8
S113002080C000007EC000007CC000007AC00000D8
S113003078C0000076C0000074C0000072C00000E8
S113004070C000006EC000006CC000006AC00000F8
S113005068C0000098C0000064C0000062C00000D6
S113006060C0000087C20000EDC100005AC000005B
S113007058C0000056C0000054C0000052C0000028
S113008050C000004EC000004CC000004AC0000038
S113009048C0000046C0000044C0000042C0000048
S11300A040C000003EC000003CC000003AC0000058
S11300B038C0000036C0000034C0000032C0000068
S11300C030C000002EC000002CC000002AC0000078
S11300D028C0000026C0000024C0000022C0000088
S11300E020C0000011241FBECFEFD1E2DEBFCDBF80
S11300F000E00CBF13E0A0E0B2E0EAE2F9E000E0C7
S11301000BBF02C007900D92AE3BB107D9F724E0B4
S1130110AEEBB3E001C01D92AA36B207E1F743D3B8
S113012002C46ECF16BC82E084BD93E095BD99EF06
S113013097BD85BB80936E0078940895882301F160
S11301409EE09093B10093E29093B0008150E3EB72
S1130150F0E0808340818091C2039091C303489F63
S11301609001499F300D1124369527953695279592
S1130170ABE7B4E1A7D3969587958093B40008952F
S11301801092B10008951F920F920FB60F9211248E
S11301900BB60F922F933F934F935F936F937F937D
S11301A08F939F93AF93BF93CF93DF93EF93FF937B
S11301B08091BE039091BF030196883E23E092078D
S11301C029F09093BF038093BE0307C01092BF032E
S11301D01092BE0381E08093CD038091CA03909175
S11301E0CB0301969093CB038093CA032091CA0357
S11301F03091CB038091C8039091C9032817390724
S113020008F454C01092CB031092CA038091CC031B
S1130210882309F440C02091C6033091C70380911C
S1130220C4039091C50328173907A9F11092CC0390
S1130230C091C003D091C103E091C603F091C703FC
S1130240EE0FFF1FEE0FFF1FEC0FFD1F208131810A
S113025040E050E064E274EF80E090E017D3822F36
S11302606DDFE091C603F091C703EE0FFF1FEE0FA1
S1130270FF1FEC0FFD1F828193819093C90380932C
S1130280C8038091C6039091C70301969093C70356
S11302908093C6030BC081E08093CC0380E04EDFE3
S11302A08AE090E09093C9038093C803FF91EF9193
S11302B0DF91CF91BF91AF919F918F917F916F917A
S11302C05F914F913F912F910F900BBE0F900FBEF6
S11302D00F901F9018959093C1038093C00370935F
S11302E0C5036093C4031092CC031092C703109209
S11302F0C6031092C9031092C803E1E0F1E08081C3
S113030080648083089590E09093C3038093C20334
S1130310089582E08093C000E1ECF0E098E19083DE
S113032096E09093C20014BC85BD78948081806867
S11303308083E5E2F4E08081807C808380818F7318
S113034080838181807F8183E7E6F4E08081807C03
S1130350808380818F7380838181807F81830895EE
S11303606099FECF16BC609BFECF15BC86B590E0AD
S113037001979093C5008093C4000895E5E2F4E0EA
S113038020812F739081892F82958695869583701D
S1130390909126049F70990F990F982B81E029134F
S11303A080E00895E7E6F4E0A8E6B4E040814F7306
S11303B02081922F92959695969593702C912F70FB
S11303C0220F220F292B50E030E02150310942172F
S11303D0530761F3E7E6F4E030813F739081292FFE
S11303E02295269526952370909168049F70990F05
S11303F0990F922B391315C0DF01E081EF7391E05F
S11304009E0F292F2F739C91907C922B9C93F0E04C
S1130410E95DFB4F8083E1ECF0E0808180628083C2
S11304200895A7E6B4E0EC91EF7391E09E0F292FB5
S11304302F739C91907C922B9C93F0E0E95DFB4F91
S1130440808308951F920F920FB60F9211240BB65A
S11304500F922F938F939F93AF93BF93EF93FF9339
S1130460E7E6F4E020812F738081982F929596958A
S113047096959370809168048F70880F880F892BEC
S1130480281306C0E1ECF0E080818F7D808329C0D1
S1130490A7E6B4E0EC918E2F8295869586958370BD
S11304A0E0916804EF70EE0FEE0FE82B81E08E0F01
S11304B08F73282F2295220F220F207C9C919F73EB
S11304C0922B9C938695869511969C911197907F7B
S11304D0892B11968C93F0E0E95DFB4F808180932A
S11304E0C600FF91EF91BF91AF919F918F912F9192
S11304F00F900BBE0F900FBE0F901F901895E5E262
S1130500F4E0A6E2B4E020812F738081982F9295C5
S11305109695969593708C918F70880F880F892B80
S1130520281789F3A5E2B4E0EC918E2F8295869585
S113053086958370E0912604EF70EE0FEE0FE82BA2
S113054081E08E0F8F73282F2295220F220F207C9B
S11305509C919F73922B9C938695869511969C9162
S11305601197907F892B11968C93F0E0EB51FC4FFF
S1130570808108951F920F920FB60F9211240BB62B
S11305800F922F933F938F939F93AF93BF93EF93C8
S1130590FF93E5E2F4E0A6E2B4E020812F738081CA
S11305A0982F92959695969593708C918F70880F4D
S11305B0880F892B30E090E001972817390769F3F9
S11305C0A5E2B4E0EC91EF7381E08E0F982F9F7356
S11305D08C91807C892B8C938091C600F0E0EB5148
S11305E0FC4F8083FF91EF91BF91AF919F918F91C9
S11305F03F912F910F900BBE0F900FBE0F901F9045
S11306001895CF93DF93EC018881882329F02196F4
S1130610C9DE89918111FCCFDF91CF910895CF92EA
S1130620DF92EF92FF920F931F93CF93DF93CDB797
S1130630DEB760970FB6F894DEBF0FBECDBF9C0146
S1130640CB014532C0F5009721F41982E1E0F0E0D6
S113065016C08E010F5F1F4FE12CF12CC42ED12C3C
S113066001C07F01F7013196B601E9D0D8018D931D
S11306708D01862F972F0097A1F7FF20CCF08F01D3
S1130680BE016F5F7F4FE60FF71FA9013197DF01AE
S113069080818A3014F0895F80838C91805D8C9393
S11306A0DA018D93AD01E617F70781F7200F311FAB
S11306B0F901108203C080E092E0A3DF60960FB6D8
S11306C0F894DEBF0FBECDBFDF91CF911F910F9184
S11306D0FF90EF90DF90CF90089591B121E030E04A
S11306E0082E02C0220F331F0A94E2F72095292313
S11306F021B9806480937C00EBE7F0E08081877F00
S1130700808387EC80937A00EAE7F0E0808184FFBD
S1130710FDCF809178009091790090936904909135
S1130720CE03891B08958FE580937C00EBE7F0E00E
S11307308081877F808387EC80937A00EAE7F0E00A
S1130740808184FFFDCF609178006093CE0370E0D8
S11307504AE081ED93E063DF8DE192E052DF81EDC9
S113076093E04FDF88E792E04CDF8091790080933B
S113077069040895CF93C82FC2DE8CE292E041DF72
S11307808C2FABDF8093CF03BADEB9DE8BE392E02C
S113079038DF8C2FA2DF8093D003B1DE8AE492E0AD
S11307A030DFCF910895B5DDDBDD83E692E029DF0C
S11307B0B9DCB9DF80E0DEDF6091CF0370E04AE0AE
S11307C081ED93E02CDF8BE792E01BDF81ED93E07A
S11307D018DF88E792E015DF6091D00370E04AE00B
S11307E081ED93E01CDF80E992E00BDF81ED93E083
S11307F008DF88E792E005DFC4E6C0DD882341F026
S11308007EDE803729F466E470E085EA92E063DDF9
S113081080E063DF4091CF0350E0282F30E0241BB9
S1130820350BC29FC001C39F900D11246091D0036A
S113083070E0641B750B17D0862F65DDDECFAA1B15
S1130840BB1B51E107C0AA1FBB1FA617B70710F0B7
S1130850A61BB70B881F991F5A95A9F780959095E9
S1130860BC01CD01089597FB072E16F4009406D021
S113087077FD08D0E4DF07FC05D03EF49095819520
S11308809F4F0895709561957F4F0895052E97FBAE
S113089016F400940FD057FD05D023D007FC02D0E6
S11308A046F408C050954095309521953F4F4F4FE1
S11308B05F4F089590958095709561957F4F8F4F08
S11308C09F4F0895A29FB001B39FC001A39F700DD5
S11308D0811D1124911DB29F700D811D1124911D44
S11308E00895A1E21A2EAA1BBB1BFD010DC0AA1F6D
S11308F0BB1FEE1FFF1FA217B307E407F50720F085
S1130900A21BB30BE40BF50B661F771F881F991FFF
S11309101A9469F760957095809590959B01AC0148
S10D0920BD01CF010895F894FFCF44
S113092A496E677265736520756E612062617365CD
S113093A206D656E6F7220612033370A00456C2082
S113094A6F66667365742065733A200056616C6F2E
S113095A72206D696E696D6F0A0D0056616C6F7253
S113096A206D6178696D6F0A0D00466F746F726548
S113097A736973746F722063616C69627261646F04
S113098A0A0D004175746F62617564617261746500
S113099A20646F6E652E2E2E0A0D00456C2076613A
S11309AA6C6F72206D696E696D6F2065733A2000F1
S11309BA456C2076616C6F72206DE178696D6F20E9
S11309CA65733A2000B801F401B801F401B801F4DE
S11309DA015D0177010B027D00B801F4015D017725
S11309EA010B027D00B801E8039302F4019302F4B7
S11309FA019302F401BA0277010B027D009F01F40C
S1130A0A015D0177010B027D00B801E8037003F46C
S1130A1A01B8017701B8017D007003F4013E03FABD
S1130A2A001003FA00E4027D00BA027D00E402FA2F
S1130A3A000000FA00C701FA006E02F4014B02FA40
S1130A4A002A02FA000B027D00D2017D000B02FA91
S1130A5A000000FA005D017D009F01F4015D017749
S1130A6A01B8017D000B02F401B80177010B027D84
S1130A7A009302E8037003F401B8017701B8017D19
S1130A8A007003F4013E03FA001003FA00E4027D45
S1130A9A00BA027D00E402FA000000FA00C701FA73
S1130AAA006E02F4014B02FA002A02FA000B027DDC
S1130ABA00D2017D000B02FA000000FA005D01FA7F
S1130ACA009F01F4015D0177010B027D00B801F476
S1110ADA015D01770105017D00B801E803000C
S9030000FC
